{
  "contractName": "Dkp",
  "abi": [
    {
      "inputs": [
        {
          "internalType": "contract Token",
          "name": "_token",
          "type": "address"
        }
      ],
      "stateMutability": "nonpayable",
      "type": "constructor"
    },
    {
      "inputs": [],
      "name": "token",
      "outputs": [
        {
          "internalType": "contract Token",
          "name": "",
          "type": "address"
        }
      ],
      "stateMutability": "view",
      "type": "function"
    },
    {
      "inputs": [],
      "name": "getRate",
      "outputs": [
        {
          "internalType": "uint256",
          "name": "",
          "type": "uint256"
        }
      ],
      "stateMutability": "view",
      "type": "function"
    },
    {
      "inputs": [
        {
          "internalType": "uint256",
          "name": "amount",
          "type": "uint256"
        }
      ],
      "name": "getLP",
      "outputs": [
        {
          "internalType": "uint256",
          "name": "amount0",
          "type": "uint256"
        }
      ],
      "stateMutability": "view",
      "type": "function"
    },
    {
      "inputs": [
        {
          "internalType": "uint256",
          "name": "amount",
          "type": "uint256"
        }
      ],
      "name": "enter",
      "outputs": [
        {
          "internalType": "uint256",
          "name": "mintAmount",
          "type": "uint256"
        }
      ],
      "stateMutability": "view",
      "type": "function"
    },
    {
      "inputs": [],
      "name": "deposit",
      "outputs": [],
      "stateMutability": "payable",
      "type": "function"
    }
  ],
  "bytecode": "0x608060405234801561001057600080fd5b50604051610aed380380610aed8339818101604052810190610032919061008d565b806000806101000a81548173ffffffffffffffffffffffffffffffffffffffff021916908373ffffffffffffffffffffffffffffffffffffffff16021790555050610111565b600081519050610087816100fa565b92915050565b60006020828403121561009f57600080fd5b60006100ad84828501610078565b91505092915050565b60006100c1826100da565b9050919050565b60006100d3826100b6565b9050919050565b600073ffffffffffffffffffffffffffffffffffffffff82169050919050565b610103816100c8565b811461010e57600080fd5b50565b6109cd806101206000396000f3fe60806040526004361061004a5760003560e01c8063679aefce1461004f578063a59f3e0c1461007a578063cdd3f298146100b7578063d0e30db0146100f4578063fc0c546a146100fe575b600080fd5b34801561005b57600080fd5b50610064610129565b604051610071919061086a565b60405180910390f35b34801561008657600080fd5b506100a1600480360381019061009c91906106e9565b6102d7565b6040516100ae919061086a565b60405180910390f35b3480156100c357600080fd5b506100de60048036038101906100d991906106e9565b61030e565b6040516100eb919061086a565b60405180910390f35b6100fc61046d565b005b34801561010a57600080fd5b5061011361060c565b6040516101209190610806565b60405180910390f35b60008073db30643c71ac9e2122ca0341ed77d09d5f99f92473ffffffffffffffffffffffffffffffffffffffff166393f1a40b600073d5f400205a052ae0516eeeaa0b50d6a7a5d942f26040518363ffffffff1660e01b8152600401610190929190610821565b60206040518083038186803b1580156101a857600080fd5b505afa1580156101bc573d6000803e3d6000fd5b505050506040513d601f19601f820116820180604052508101906101e09190610712565b905060008060009054906101000a900473ffffffffffffffffffffffffffffffffffffffff1673ffffffffffffffffffffffffffffffffffffffff166318160ddd6040518163ffffffff1660e01b815260040160206040518083038186803b15801561024b57600080fd5b505afa15801561025f573d6000803e3d6000fd5b505050506040513d601f19601f820116820180604052508101906102839190610712565b9050670de0b6b3a764000081838161029757fe5b0410806102a45750600081145b156102bb57670de0b6b3a7640000925050506102d4565b80670de0b6b3a76400008302816102ce57fe5b04925050505b90565b6000806102e2610129565b905060006102ef8461030e565b905081670de0b6b3a764000082028161030457fe5b0492505050919050565b60008073eb579ddcd49a7beb3f205c9ff6006bb6390f138f73ffffffffffffffffffffffffffffffffffffffff166318160ddd6040518163ffffffff1660e01b815260040160206040518083038186803b15801561036b57600080fd5b505afa15801561037f573d6000803e3d6000fd5b505050506040513d601f19601f820116820180604052508101906103a39190610712565b905060008073eb579ddcd49a7beb3f205c9ff6006bb6390f138f73ffffffffffffffffffffffffffffffffffffffff16630902f1ac6040518163ffffffff1660e01b8152600401604080518083038186803b15801561040157600080fd5b505afa158015610415573d6000803e3d6000fd5b505050506040513d601f19601f8201168201806040525081019061043991906106ad565b91509150806dffffffffffffffffffffffffffff16670de0b6b3a7640000868502028161046257fe5b049350505050919050565b68056bc75e2d631000003410156104b9576040517f08c379a00000000000000000000000000000000000000000000000000000000081526004016104b09061084a565b60405180910390fd5b60006104c4346102d7565b905073cf664087a5bb0237a0bad6742852ec6c8d69a27a73ffffffffffffffffffffffffffffffffffffffff1663a9059cbb73d5f400205a052ae0516eeeaa0b50d6a7a5d942f2346040518363ffffffff1660e01b81526004016105299291906107dd565b602060405180830381600087803b15801561054357600080fd5b505af1158015610557573d6000803e3d6000fd5b505050506040513d601f19601f8201168201806040525081019061057b9190610684565b5060008054906101000a900473ffffffffffffffffffffffffffffffffffffffff1673ffffffffffffffffffffffffffffffffffffffff166340c10f1933836040518363ffffffff1660e01b81526004016105d79291906107dd565b600060405180830381600087803b1580156105f157600080fd5b505af1158015610605573d6000803e3d6000fd5b5050505050565b60008054906101000a900473ffffffffffffffffffffffffffffffffffffffff1681565b60008151905061063f81610952565b92915050565b60008151905061065481610969565b92915050565b60008135905061066981610980565b92915050565b60008151905061067e81610980565b92915050565b60006020828403121561069657600080fd5b60006106a484828501610630565b91505092915050565b600080604083850312156106c057600080fd5b60006106ce85828601610645565b92505060206106df85828601610645565b9150509250929050565b6000602082840312156106fb57600080fd5b60006107098482850161065a565b91505092915050565b60006020828403121561072457600080fd5b60006107328482850161066f565b91505092915050565b610744816108e6565b82525050565b610753816108f8565b82525050565b6107628161091c565b82525050565b6000610775602183610885565b91507f4572726f722c206465706f736974206d757374206265203e3d20313030204f4e60008301527f45000000000000000000000000000000000000000000000000000000000000006020830152604082019050919050565b6107d7816108dc565b82525050565b60006040820190506107f2600083018561073b565b6107ff60208301846107ce565b9392505050565b600060208201905061081b600083018461074a565b92915050565b60006040820190506108366000830185610759565b610843602083018461073b565b9392505050565b6000602082019050818103600083015261086381610768565b9050919050565b600060208201905061087f60008301846107ce565b92915050565b600082825260208201905092915050565b60008115159050919050565b60006dffffffffffffffffffffffffffff82169050919050565b600073ffffffffffffffffffffffffffffffffffffffff82169050919050565b6000819050919050565b60006108f18261092e565b9050919050565b60006109038261090a565b9050919050565b6000610915826108bc565b9050919050565b6000610927826108dc565b9050919050565b600061093982610940565b9050919050565b600061094b826108bc565b9050919050565b61095b81610896565b811461096657600080fd5b50565b610972816108a2565b811461097d57600080fd5b50565b610989816108dc565b811461099457600080fd5b5056fea26469706673582212200c1cc213bb97e4253f0edcae4f53ca1177ae32c6fa8a6f0076625f77a4637e7464736f6c63430007060033",
  "immutableReferences": {},
  "source": "// SPDX-License-Identifier: MIT\r\npragma solidity >=0.6.0 <0.8.0;\r\npragma experimental ABIEncoderV2;\r\n\r\nimport \"./Token.sol\";\r\n\r\n/* interface IERC20 {\r\n    event Approval(\r\n        address indexed owner,\r\n        address indexed spender,\r\n        uint256 value\r\n    );\r\n    event Transfer(address indexed from, address indexed to, uint256 value);\r\n\r\n    function name() external view returns (string memory);\r\n\r\n    function symbol() external view returns (string memory);\r\n\r\n    function decimals() external view returns (uint8);\r\n\r\n    function totalSupply() external view returns (uint256);\r\n\r\n    function balanceOf(address owner) external view returns (uint256);\r\n\r\n    function allowance(address owner, address spender)\r\n        external\r\n        view\r\n        returns (uint256);\r\n\r\n    function approve(address spender, uint256 value) external returns (bool);\r\n\r\n    function transfer(address to, uint256 value) external returns (bool);\r\n\r\n    function transferFrom(\r\n        address from,\r\n        address to,\r\n        uint256 value\r\n    ) external returns (bool);\r\n} */\r\n\r\ninterface IMasterGardener {\r\n    struct UserInfo {\r\n        uint256 amount;     // How many LP tokens the user has provided.\r\n        //uint256 rewardDebt; // Reward debt. See explanation below.\r\n    }\r\n\r\n    struct PoolInfo {\r\n        IERC20 lpToken;           // Address of LP token contract.\r\n        uint256 allocPoint;       // How many allocation points assigned to this pool. JEWEL to distribute per block.\r\n        uint256 lastRewardBlock;  // Last block number that JEWEL distribution occurs.\r\n        uint256 accJewelPerShare; // Accumulated JEWEL per share, times 1e12. See below.\r\n    }\r\n\r\n    function poolInfo(uint256 pid) external view returns (IMasterGardener.PoolInfo memory);\r\n    function userInfo(uint256 _pid, address _user) external view returns (uint256);\r\n    function totalAllocPoint() external view returns (uint256);\r\n    function deposit(uint256 _pid, uint256 _amount) external;\r\n}\r\n\r\ninterface IUniswapV2Router {\r\n    function getAmountsOut(uint amountIn, address[] calldata path) external view returns (uint[] memory amounts);\r\n}\r\n\r\ninterface IUniswapV2Pair {\r\n    struct Reserves {\r\n        uint112 reserve0;\r\n        uint112 reserve1;\r\n    }\r\n    \r\n    function getReserves() external view returns (uint112 reserve0, uint112 reserve1);\r\n}\r\n\r\ncontract Dkp {\r\n    Token public token;\r\n    \r\n    address private constant UNISWAP_V2_ROUTER = 0x24ad62502d1C652Cc7684081169D04896aC20f30;\r\n    address private constant GARDEN = 0xDB30643c71aC9e2122cA0341ED77d09D5f99F924;\r\n    address private constant PAIR = 0xEb579ddcD49A7beb3f205c9fF6006Bb6390F138f;\r\n    address private constant WONE = 0xcF664087a5bB0237a0BAd6742852ec6c8d69A27a;\r\n    address private constant JEWEL = 0x72Cb10C6bfA5624dD07Ef608027E366bd690048F;\r\n    \r\n    constructor(Token _token) public {\r\n        token = _token;\r\n    }\r\n    \r\n    function getRate() public view returns (uint256) {\r\n        uint256 amountLP = IMasterGardener(GARDEN).userInfo(0, 0xD5F400205a052aE0516EEEAa0b50D6a7A5d942F2);\r\n        uint256 tokenSupply = token.totalSupply();\r\n        if (amountLP / tokenSupply < 1 * 10**18 || tokenSupply == 0) {\r\n            return 1 * 10**18;\r\n        } else {\r\n            return (amountLP * 10**18) / tokenSupply;\r\n        }\r\n        return amountLP;\r\n    }\r\n    \r\n    function getLP(uint256 amount) public view returns (uint256 amount0) {\r\n        \r\n        uint256 lpSupply = IERC20(PAIR).totalSupply();\r\n\r\n        (uint112 reserve0, uint112 reserve1) = IUniswapV2Pair(PAIR).getReserves();\r\n        \r\n        return (lpSupply * amount * 10**18) / reserve1;\r\n        \r\n    }\r\n    \r\n    function enter(uint256 amount) public view returns (uint256 mintAmount) {\r\n        \r\n        uint256 rate = getRate();\r\n        uint256 lpAmount = getLP(amount);\r\n        \r\n        return (lpAmount * 10**18) / rate;\r\n        \r\n    }\r\n    \r\n    function deposit() payable public {\r\n        require(msg.value>=1e20, 'Error, deposit must be >= 100 ONE');\r\n        \r\n        uint256 amount = enter(msg.value);\r\n        \r\n        IERC20(WONE).transfer(0xD5F400205a052aE0516EEEAa0b50D6a7A5d942F2, msg.value);\r\n        \r\n        token.mint(msg.sender, amount);\r\n    }\r\n    \r\n}",
  "sourcePath": "A:\\Harmony\\dkp\\src\\contracts\\Check.sol",
  "compiler": {
    "name": "solc",
    "version": "0.7.6+commit.7338295f.Emscripten.clang"
  },
  "schemaVersion": "3.4.7",
  "updatedAt": "2022-05-17T21:05:54.125Z",
  "devdoc": {
    "kind": "dev",
    "methods": {},
    "version": 1
  },
  "userdoc": {
    "kind": "user",
    "methods": {},
    "version": 1
  }
}